{
  "_format": "hh-sol-artifact-1",
  "contractName": "ReferralSystem",
  "sourceName": "contracts/referral.sol",
  "abi": [
    {
      "inputs": [
        {
          "internalType": "address",
          "name": "_token",
          "type": "address"
        },
        {
          "internalType": "uint256[]",
          "name": "_percentages",
          "type": "uint256[]"
        }
      ],
      "stateMutability": "nonpayable",
      "type": "constructor"
    },
    {
      "inputs": [],
      "name": "AccessControlBadConfirmation",
      "type": "error"
    },
    {
      "inputs": [
        {
          "internalType": "address",
          "name": "account",
          "type": "address"
        },
        {
          "internalType": "bytes32",
          "name": "neededRole",
          "type": "bytes32"
        }
      ],
      "name": "AccessControlUnauthorizedAccount",
      "type": "error"
    },
    {
      "inputs": [],
      "name": "EnforcedPause",
      "type": "error"
    },
    {
      "inputs": [],
      "name": "ExpectedPause",
      "type": "error"
    },
    {
      "inputs": [],
      "name": "ReentrancyGuardReentrantCall",
      "type": "error"
    },
    {
      "anonymous": false,
      "inputs": [
        {
          "indexed": false,
          "internalType": "address",
          "name": "account",
          "type": "address"
        }
      ],
      "name": "Paused",
      "type": "event"
    },
    {
      "anonymous": false,
      "inputs": [
        {
          "indexed": false,
          "internalType": "address",
          "name": "token",
          "type": "address"
        },
        {
          "indexed": false,
          "internalType": "address",
          "name": "staking",
          "type": "address"
        },
        {
          "indexed": false,
          "internalType": "uint256[]",
          "name": "percentages",
          "type": "uint256[]"
        }
      ],
      "name": "ReferralConfigUpdated",
      "type": "event"
    },
    {
      "anonymous": false,
      "inputs": [
        {
          "indexed": true,
          "internalType": "address",
          "name": "user",
          "type": "address"
        },
        {
          "indexed": true,
          "internalType": "address",
          "name": "referrer",
          "type": "address"
        }
      ],
      "name": "ReferralRegistered",
      "type": "event"
    },
    {
      "anonymous": false,
      "inputs": [
        {
          "indexed": true,
          "internalType": "address",
          "name": "user",
          "type": "address"
        },
        {
          "indexed": false,
          "internalType": "uint256",
          "name": "amount",
          "type": "uint256"
        }
      ],
      "name": "RewardClaimed",
      "type": "event"
    },
    {
      "anonymous": false,
      "inputs": [
        {
          "indexed": true,
          "internalType": "address",
          "name": "from",
          "type": "address"
        },
        {
          "indexed": true,
          "internalType": "address",
          "name": "to",
          "type": "address"
        },
        {
          "indexed": false,
          "internalType": "uint256",
          "name": "amount",
          "type": "uint256"
        },
        {
          "indexed": false,
          "internalType": "uint8",
          "name": "level",
          "type": "uint8"
        }
      ],
      "name": "RewardDistributed",
      "type": "event"
    },
    {
      "anonymous": false,
      "inputs": [
        {
          "indexed": true,
          "internalType": "bytes32",
          "name": "role",
          "type": "bytes32"
        },
        {
          "indexed": true,
          "internalType": "bytes32",
          "name": "previousAdminRole",
          "type": "bytes32"
        },
        {
          "indexed": true,
          "internalType": "bytes32",
          "name": "newAdminRole",
          "type": "bytes32"
        }
      ],
      "name": "RoleAdminChanged",
      "type": "event"
    },
    {
      "anonymous": false,
      "inputs": [
        {
          "indexed": true,
          "internalType": "bytes32",
          "name": "role",
          "type": "bytes32"
        },
        {
          "indexed": true,
          "internalType": "address",
          "name": "account",
          "type": "address"
        },
        {
          "indexed": true,
          "internalType": "address",
          "name": "sender",
          "type": "address"
        }
      ],
      "name": "RoleGranted",
      "type": "event"
    },
    {
      "anonymous": false,
      "inputs": [
        {
          "indexed": true,
          "internalType": "bytes32",
          "name": "role",
          "type": "bytes32"
        },
        {
          "indexed": true,
          "internalType": "address",
          "name": "account",
          "type": "address"
        },
        {
          "indexed": true,
          "internalType": "address",
          "name": "sender",
          "type": "address"
        }
      ],
      "name": "RoleRevoked",
      "type": "event"
    },
    {
      "anonymous": false,
      "inputs": [
        {
          "indexed": false,
          "internalType": "address",
          "name": "account",
          "type": "address"
        }
      ],
      "name": "Unpaused",
      "type": "event"
    },
    {
      "inputs": [],
      "name": "ADMIN_ROLE",
      "outputs": [
        {
          "internalType": "bytes32",
          "name": "",
          "type": "bytes32"
        }
      ],
      "stateMutability": "view",
      "type": "function"
    },
    {
      "inputs": [],
      "name": "DEFAULT_ADMIN_ROLE",
      "outputs": [
        {
          "internalType": "bytes32",
          "name": "",
          "type": "bytes32"
        }
      ],
      "stateMutability": "view",
      "type": "function"
    },
    {
      "inputs": [],
      "name": "PERCENTAGE_DIVISOR",
      "outputs": [
        {
          "internalType": "uint256",
          "name": "",
          "type": "uint256"
        }
      ],
      "stateMutability": "view",
      "type": "function"
    },
    {
      "inputs": [],
      "name": "claimRewards",
      "outputs": [],
      "stateMutability": "nonpayable",
      "type": "function"
    },
    {
      "inputs": [
        {
          "internalType": "address",
          "name": "user",
          "type": "address"
        },
        {
          "internalType": "uint256",
          "name": "amount",
          "type": "uint256"
        }
      ],
      "name": "distributeReferralReward",
      "outputs": [],
      "stateMutability": "nonpayable",
      "type": "function"
    },
    {
      "inputs": [
        {
          "internalType": "address",
          "name": "user",
          "type": "address"
        }
      ],
      "name": "getPendingRewards",
      "outputs": [
        {
          "internalType": "uint256",
          "name": "",
          "type": "uint256"
        }
      ],
      "stateMutability": "view",
      "type": "function"
    },
    {
      "inputs": [
        {
          "internalType": "address",
          "name": "user",
          "type": "address"
        }
      ],
      "name": "getReferralTree",
      "outputs": [
        {
          "internalType": "address[]",
          "name": "",
          "type": "address[]"
        }
      ],
      "stateMutability": "view",
      "type": "function"
    },
    {
      "inputs": [
        {
          "internalType": "address",
          "name": "user",
          "type": "address"
        }
      ],
      "name": "getReferrer",
      "outputs": [
        {
          "internalType": "address",
          "name": "",
          "type": "address"
        }
      ],
      "stateMutability": "view",
      "type": "function"
    },
    {
      "inputs": [
        {
          "internalType": "uint8",
          "name": "level",
          "type": "uint8"
        }
      ],
      "name": "getRewardPercentage",
      "outputs": [
        {
          "internalType": "uint256",
          "name": "",
          "type": "uint256"
        }
      ],
      "stateMutability": "view",
      "type": "function"
    },
    {
      "inputs": [
        {
          "internalType": "bytes32",
          "name": "role",
          "type": "bytes32"
        }
      ],
      "name": "getRoleAdmin",
      "outputs": [
        {
          "internalType": "bytes32",
          "name": "",
          "type": "bytes32"
        }
      ],
      "stateMutability": "view",
      "type": "function"
    },
    {
      "inputs": [
        {
          "internalType": "bytes32",
          "name": "role",
          "type": "bytes32"
        },
        {
          "internalType": "address",
          "name": "account",
          "type": "address"
        }
      ],
      "name": "grantRole",
      "outputs": [],
      "stateMutability": "nonpayable",
      "type": "function"
    },
    {
      "inputs": [
        {
          "internalType": "bytes32",
          "name": "role",
          "type": "bytes32"
        },
        {
          "internalType": "address",
          "name": "account",
          "type": "address"
        }
      ],
      "name": "hasRole",
      "outputs": [
        {
          "internalType": "bool",
          "name": "",
          "type": "bool"
        }
      ],
      "stateMutability": "view",
      "type": "function"
    },
    {
      "inputs": [
        {
          "internalType": "address",
          "name": "user",
          "type": "address"
        }
      ],
      "name": "isRegistered",
      "outputs": [
        {
          "internalType": "bool",
          "name": "",
          "type": "bool"
        }
      ],
      "stateMutability": "view",
      "type": "function"
    },
    {
      "inputs": [],
      "name": "pause",
      "outputs": [],
      "stateMutability": "nonpayable",
      "type": "function"
    },
    {
      "inputs": [],
      "name": "paused",
      "outputs": [
        {
          "internalType": "bool",
          "name": "",
          "type": "bool"
        }
      ],
      "stateMutability": "view",
      "type": "function"
    },
    {
      "inputs": [
        {
          "internalType": "address",
          "name": "",
          "type": "address"
        }
      ],
      "name": "pendingRewards",
      "outputs": [
        {
          "internalType": "uint256",
          "name": "",
          "type": "uint256"
        }
      ],
      "stateMutability": "view",
      "type": "function"
    },
    {
      "inputs": [
        {
          "internalType": "address",
          "name": "user",
          "type": "address"
        },
        {
          "internalType": "address",
          "name": "referrer",
          "type": "address"
        }
      ],
      "name": "registerReferrer",
      "outputs": [],
      "stateMutability": "nonpayable",
      "type": "function"
    },
    {
      "inputs": [
        {
          "internalType": "address",
          "name": "",
          "type": "address"
        }
      ],
      "name": "registered",
      "outputs": [
        {
          "internalType": "bool",
          "name": "",
          "type": "bool"
        }
      ],
      "stateMutability": "view",
      "type": "function"
    },
    {
      "inputs": [
        {
          "internalType": "bytes32",
          "name": "role",
          "type": "bytes32"
        },
        {
          "internalType": "address",
          "name": "callerConfirmation",
          "type": "address"
        }
      ],
      "name": "renounceRole",
      "outputs": [],
      "stateMutability": "nonpayable",
      "type": "function"
    },
    {
      "inputs": [
        {
          "internalType": "bytes32",
          "name": "role",
          "type": "bytes32"
        },
        {
          "internalType": "address",
          "name": "account",
          "type": "address"
        }
      ],
      "name": "revokeRole",
      "outputs": [],
      "stateMutability": "nonpayable",
      "type": "function"
    },
    {
      "inputs": [
        {
          "internalType": "uint256",
          "name": "",
          "type": "uint256"
        }
      ],
      "name": "rewardPercentages",
      "outputs": [
        {
          "internalType": "uint256",
          "name": "",
          "type": "uint256"
        }
      ],
      "stateMutability": "view",
      "type": "function"
    },
    {
      "inputs": [],
      "name": "rewardToken",
      "outputs": [
        {
          "internalType": "contract IERC20",
          "name": "",
          "type": "address"
        }
      ],
      "stateMutability": "view",
      "type": "function"
    },
    {
      "inputs": [
        {
          "internalType": "uint256[]",
          "name": "percentages",
          "type": "uint256[]"
        }
      ],
      "name": "setRewardPercentages",
      "outputs": [],
      "stateMutability": "nonpayable",
      "type": "function"
    },
    {
      "inputs": [
        {
          "internalType": "address",
          "name": "contractAddr",
          "type": "address"
        }
      ],
      "name": "setStakingContract",
      "outputs": [],
      "stateMutability": "nonpayable",
      "type": "function"
    },
    {
      "inputs": [
        {
          "internalType": "address",
          "name": "token",
          "type": "address"
        }
      ],
      "name": "setTokenAddress",
      "outputs": [],
      "stateMutability": "nonpayable",
      "type": "function"
    },
    {
      "inputs": [],
      "name": "stakingContract",
      "outputs": [
        {
          "internalType": "address",
          "name": "",
          "type": "address"
        }
      ],
      "stateMutability": "view",
      "type": "function"
    },
    {
      "inputs": [
        {
          "internalType": "bytes4",
          "name": "interfaceId",
          "type": "bytes4"
        }
      ],
      "name": "supportsInterface",
      "outputs": [
        {
          "internalType": "bool",
          "name": "",
          "type": "bool"
        }
      ],
      "stateMutability": "view",
      "type": "function"
    },
    {
      "inputs": [],
      "name": "unpause",
      "outputs": [],
      "stateMutability": "nonpayable",
      "type": "function"
    },
    {
      "inputs": [
        {
          "internalType": "address",
          "name": "user",
          "type": "address"
        },
        {
          "internalType": "uint256",
          "name": "amount",
          "type": "uint256"
        }
      ],
      "name": "updateUserBalance",
      "outputs": [],
      "stateMutability": "nonpayable",
      "type": "function"
    }
  ],
  "bytecode": "0x608060405234620001d957620013fa803803806200001d81620001de565b928339810190604081830312620001d95780516001600160a01b0381169290839003620001d9576020828101516001600160401b0393919291848211620001d957019080601f83011215620001d9578151908482116200017d578160051b92846200008a818601620001de565b809481520190858295820101928311620001d95785809101915b838310620001c85750505050600194600160025580156200019357600380546001600160a01b031916919091179055519283116200017d576801000000000000000083116200017d57600954836009558084106200014d575b509060096000528060002060005b8481106200013b576200011e3362000204565b506200012a3362000284565b506040516110b39081620003278239f35b8351828201559282019285016200010b565b6000600960005285858560002093840193015b8381106200017157505050620000fd565b82815501869062000160565b634e487b7160e01b600052604160045260246000fd5b60405162461bcd60e51b815260048101859052600d60248201526c24b73b30b634b2103a37b5b2b760991b6044820152606490fd5b8251815291810191869101620000a4565b600080fd5b6040519190601f01601f191682016001600160401b038111838210176200017d57604052565b6001600160a01b031660008181527fad3228b676f7d3cd4284a5443f17f1962b36e491b30a40b2405849e597ba5fb5602052604081205490919060ff166200028057818052816020526040822081835260205260408220600160ff198254161790553391600080516020620013da8339815191528180a4600190565b5090565b6001600160a01b031660008181527f7d7ffb7a348e1c6a02869081a26547b49160dd3df72d1d75a570eb9b698292ec60205260408120549091907fa49807205ce4d355092ef5a8a18f56e8913cf4a201fbe287825b095693c217759060ff166200032157808352826020526040832082845260205260408320600160ff19825416179055600080516020620013da833981519152339380a4600190565b50509056fe608060408181526004918236101561001657600080fd5b600092833560e01c91826301ffc9a714610dae5750816310383fe614610c2e578163248a9ca314610c0457816326a4e8d214610bb35781632f2ff15d14610b8957816331d7a26214610b6157816336568abe14610b1b578163372500ab146109d85781633f4ba83a1461096e5781634a9fefc7146109335781635c975abb1461090f5781635eba6e47146108d357816375b238fc146108985781638456cb591461083e57816391d14854146107f85781639dd373b9146107af578163a217fddf14610794578163b11b401114610623578163b1547bb9146105f8578163b2dd5c07146105ba578163c3c5a547146105ba578163caf297651461059d578163d359069514610358578163d547741f14610319578163d5c0cb991461026f578163daba2c8e146101f2578163ee99205c146101c657508063f6ed20171461018f5763f7c618c11461016457600080fd5b3461018b578160031936011261018b5760035490516001600160a01b039091168152602090f35b5080fd5b503461018b57602036600319011261018b5760209181906001600160a01b036101b6610e01565b1681526007845220549051908152f35b9050346101ee57826003193601126101ee575490516001600160a01b03909116815260209150f35b8280fd5b8391503461018b57602036600319011261018b5780359160ff83169081840361026c575060095411156102395760208361022b84610e32565b91905490519160031b1c8152f35b606490602084519162461bcd60e51b8352820152600d60248201526c125b9d985b1a59081b195d995b609a1b6044820152fd5b80fd5b50503461018b576020806003193601126101ee576001600160a01b039283610295610e01565b1681526006825282812091835190818185549182815201908195855282852090855b81811061030357505050826102cd910383610ebd565b8451948186019282875251809352850193925b8281106102ed5785850386f35b83518716855293810193928101926001016102e0565b82548a16845292840192600192830192016102b7565b919050346101ee57806003193601126101ee57610354913561034f600161033e610e1c565b938387528660205286200154610f6f565b611013565b5080f35b82843461026c578160031936011261026c57610372610e01565b9261037b610e1c565b90610384610ef5565b6001600160a01b039485169081151580610592575b15610560578583169182811461051d578085526020936008855260ff87872054166104e55787905b168015610424578181146103e157855260058452868087872054166103c1565b865162461bcd60e51b8152808401869052601a60248201527f43697263756c617220726566657272616c2064657465637465640000000000006044820152606490fd5b509192859183865260058252828620906bffffffffffffffffffffffff60a01b91868382541617905585875260068352838720805491600160401b8310156104d257600183018083558310156104bf5750875282872001805490911684179055828552600890528320805460ff191660011790557f5f1ca2fcc108b751843a763e60d2201f593516109d7dbb1b700468f2d4190bb78380a380f35b634e487b7160e01b895260329052602488fd5b634e487b7160e01b895260419052602488fd5b865162461bcd60e51b81528084018690526012602482015271105b1c9958591e481c9959da5cdd195c995960721b6044820152606490fd5b855162461bcd60e51b8152602081840152601960248201527f53656c662d726566657272616c206e6f7420616c6c6f776564000000000000006044820152606490fd5b606490602086519162461bcd60e51b8352820152600c60248201526b5a65726f206164647265737360a01b6044820152fd5b508583161515610399565b50503461018b578160031936011261018b57602090516127108152f35b50503461018b57602036600319011261018b5760209160ff9082906001600160a01b036105e5610e01565b1681526008855220541690519015158152f35b9050346101ee5760203660031901126101ee57359160095483101561026c575061022b602092610e32565b82843461026c578160031936011261026c5761063d610e01565b835460249485359490926001600160a01b039283163303610762578216808552600590602090600560205284848820541690878915925b6009549060ff831691821080610757575b156107535761069383610e32565b90549060031b1c808d02908d820414861715610741576127108a9104911691828c5260078752888c2080549083820180921161072f57849387937f6e350c3cc79a330d7956115d8ff82a0bb6ddd02eeec72f66fdef0d02780ab463938d935582519182528a820152a3895284845286868a2054169060ff80911690811461071d5760010190610674565b634e487b7160e01b8a52601189528b8afd5b634e487b7160e01b8e5260118d528f8efd5b634e487b7160e01b8c5260118b528d8cfd5b8a80f35b508881161515610685565b815162461bcd60e51b8152602081860152600c60248201526b155b985d5d1a1bdc9a5e995960a21b6044820152606490fd5b50503461018b578160031936011261018b5751908152602090f35b83903461018b57602036600319011261018b576107ca610e01565b6107d2610ef5565b6001600160a01b03166107e6811515610e7f565b81546001600160a01b03191617905580f35b9050346101ee57816003193601126101ee578160209360ff92610819610e1c565b903582528186528282206001600160a01b039091168252855220549151911615158152f35b50503461018b578160031936011261018b5760207f62e78cea01bee320cd4e420270b5ea74000d11b0c9f74754ebdbfc544b05a2589161087c610ef5565b610884611088565b600160ff198154161760015551338152a180f35b50503461018b578160031936011261018b57602090517fa49807205ce4d355092ef5a8a18f56e8913cf4a201fbe287825b095693c217758152f35b50503461018b578060031936011261018b576108ed610e01565b6108f5610ef5565b6001600160a01b0316825260076020528120602435905580f35b50503461018b578160031936011261018b5760209060ff6001541690519015158152f35b50503461018b57602036600319011261018b576020916001600160a01b039082908261095d610e01565b168152600585522054169051908152f35b9050346101ee57826003193601126101ee57610988610ef5565b6001549060ff8216156109ca575060ff1916600155513381527f5db9ee0a495bf2e6ff9c91a7834c1ba4fdd244a5e8aa4e537bd38aeae4b073aa90602090a180f35b8251638dfc202b60e01b8152fd5b919050346101ee57826003193601126101ee576002805414610b0e5760028055610a00611088565b33835260206007815281842054928315610ad7573380865260078352838620869055600354845163a9059cbb60e01b8152928301919091526024820185905282908290604490829089906001600160a01b03165af18015610acd57610a92575b507f106f923f993c2149d49b4255ff723acafa1f2d94393f561d3eda32ae348f724191519283523392a2600160025580f35b8181813d8311610ac6575b610aa78183610ebd565b81010312610ac2575180151503610abe5738610a60565b8380fd5b8480fd5b503d610a9d565b83513d87823e3d90fd5b915162461bcd60e51b81529182015260136024820152724e6f207265776172647320746f20636c61696d60681b6044820152606490fd5b51633ee5aeb560e01b8152fd5b83833461018b578060031936011261018b57610b35610e1c565b90336001600160a01b03831603610b525750610354919235611013565b5163334bd91960e11b81528390fd5b50503461018b57602036600319011261018b5760209181906001600160a01b036101b6610e01565b919050346101ee57806003193601126101ee576103549135610bae600161033e610e1c565b610f95565b833461026c57602036600319011261026c57610bcd610e01565b610bd5610ef5565b6001600160a01b0316610be9811515610e7f565b6bffffffffffffffffffffffff60a01b600354161760035580f35b9050346101ee5760203660031901126101ee57816020936001923581528085522001549051908152f35b9050346101ee576020916020600319360112610abe5781359067ffffffffffffffff90818311610daa5736602384011215610daa5782840135918211610daa5760248301948260051b936024853692010111610da657610c8c610ef5565b600160401b8311610d935760095483600955808410610d53575b508560098852875b848110610d21575050600354945482516001600160a01b0396871681529516602086015250606090840181905283018190526001600160fb1b0310610abe5781816080927f86bf600ccd362669e3518271e219b1efa05863a10405ed18fc26a58cc50d9f8895848401378101030190a180f35b81357f6e1540171b6c0c960b71a7020d9f60077f6af931a8bbf590da0223dacf75c7af82015590820190600101610cae565b837f6e1540171b6c0c960b71a7020d9f60077f6af931a8bbf590da0223dacf75c7af91820191015b818110610d885750610ca6565b888155600101610d7b565b634e487b7160e01b875260418552602487fd5b8680fd5b8580fd5b8491346101ee5760203660031901126101ee573563ffffffff60e01b81168091036101ee5760209250637965db0b60e01b8114908115610df0575b5015158152f35b6301ffc9a760e01b14905083610de9565b600435906001600160a01b0382168203610e1757565b600080fd5b602435906001600160a01b0382168203610e1757565b600954811015610e695760096000527f6e1540171b6c0c960b71a7020d9f60077f6af931a8bbf590da0223dacf75c7af0190600090565b634e487b7160e01b600052603260045260246000fd5b15610e8657565b60405162461bcd60e51b815260206004820152600f60248201526e496e76616c6964206164647265737360881b6044820152606490fd5b90601f8019910116810190811067ffffffffffffffff821117610edf57604052565b634e487b7160e01b600052604160045260246000fd5b3360009081527f7d7ffb7a348e1c6a02869081a26547b49160dd3df72d1d75a570eb9b698292ec60205260409020547fa49807205ce4d355092ef5a8a18f56e8913cf4a201fbe287825b095693c217759060ff1615610f515750565b6044906040519063e2517d3f60e01b82523360048301526024820152fd5b80600052600060205260406000203360005260205260ff6040600020541615610f515750565b9060009180835282602052604083209160018060a01b03169182845260205260ff6040842054161560001461100e57808352826020526040832082845260205260408320600160ff198254161790557f2f8788117e7eff1d82e926ec794901d17c78024a50270940304540a733656f0d339380a4600190565b505090565b9060009180835282602052604083209160018060a01b03169182845260205260ff60408420541660001461100e5780835282602052604083208284526020526040832060ff1981541690557ff6391f5c32d9c69d2a47ea670b442974b53935d1edc7fd64eb21e047a839171b339380a4600190565b60ff6001541661109457565b60405163d93c066560e01b8152600490fdfea164736f6c6343000816000a2f8788117e7eff1d82e926ec794901d17c78024a50270940304540a733656f0d",
  "linkReferences": {},
  "deployedLinkReferences": {}
}